:100000000C945E000C9486000C9486000C94860080
:100010000C9486000C9486000C9486000C94860048
:100020000C9486000C9486000C9486000C94980521
:100030000C9486000C9486000C9486000C94860028
:100040000C94F6040C9486000C9466050C94400500
:100050000C9486000C9486000C9486000C94860008
:100060000C9486000C948600000000080002010039
:100070000003040700000000000000000000000072
:10008000250028002B0000000000240027002A0083
:10009000040404040404040402020202020203032E
:1000A0000303030301020408102040800102040836
:1000B000102001020408102054068D0911241FBECF
:1000C000CFEFD8E0DEBFCDBF11E0A0E0B1E0E2EBC2
:1000D000F9E102C005900D92A233B107D9F722E0F1
:1000E000A2E3B1E001C01D92A631B207E1F710E032
:1000F000CDE5D0E004C02197FE010E94A10BCC35D4
:10010000D107C9F70E9420070C94CC0C0C94000076
:1001100090E0FC01EC55FF4F249180579F4FFC016C
:100120008491882399F090E0880F991FFC01EA5789
:10013000FF4FA591B491FC01E458FF4F8591949134
:100140008FB7F894EC91E22BEC938FBF089590E079
:10015000FC01E859FF4F2491FC01EC55FF4F34910D
:10016000FC01E057FF4FE491EE23C9F0222339F060
:10017000233001F1A8F4213019F1223029F1F0E007
:10018000EE0FFF1FE458FF4FA591B4918FB7F8947D
:10019000EC91611126C030953E233C938FBF0895AA
:1001A0002730A9F02830C9F0243049F78091800029
:1001B0008F7D03C0809180008F7780938000DFCF98
:1001C00084B58F7784BDDBCF84B58F7DFBCF8091E5
:1001D000B0008F778093B000D2CF8091B0008F7D38
:1001E000F9CF3E2BDACF1F93CF93DF93182FEB017C
:1001F0000E948800209739F460E0812FDF91CF9131
:100200001F910C94A700CF3FD10511F461E0F5CF09
:10021000E12FF0E0E859FF4FE491E33031F140F491
:10022000E130B1F0E230E1F0C038D1057CF7E4CF45
:10023000E73029F1E83059F1E430B1F780918000DE
:10024000806280938000D0938B00C0938A0004C0AA
:1002500084B5806884BDC7BDDF91CF911F9108959B
:1002600084B5806284BDC8BDF7CF8091800080686E
:1002700080938000D0938900C0938800EDCF809157
:10028000B00080688093B000C093B300E5CF809148
:10029000B00080628093B000C093B400DDCF1092B4
:1002A000FE011092FF01109200021092010270E014
:1002B00060E086E00E94F30070E060E084E00E946D
:1002C000F30070E060E087E00E94F30070E060E01F
:1002D00085E00C94F3003FB7F89480913801909139
:1002E0003901A0913A01B0913B0126B5A89B05C008
:1002F0002F3F19F00196A11DB11D3FBFBA2FA92FA5
:10030000982F8827BC01CD01620F711D811D911DA1
:1003100042E0660F771F881F991F4A95D1F708950D
:100320002FB7F894609134017091350180913601B6
:10033000909137012FBF0895AF92BF92CF92DF9275
:10034000EF92FF920F931F93CF93DF936C017B018A
:100350008B01040F151FEB015E01AE18BF08C0171B
:10036000D10759F06991D601ED91FC910190F0818E
:10037000E02DC6010995892B79F7C501DF91CF9151
:100380001F910F91FF90EF90DF90CF90BF90AF90B3
:100390000895FC01538D448D252F30E0842F90E08B
:1003A000821B930B541710F0CF9608950197089570
:1003B000FC01918D828D981761F0A28DAE0FBF2F39
:1003C000B11D5D968C91928D9F5F9F73928F90E08F
:1003D00008958FEF9FEF0895FC01918D828D9817FE
:1003E00031F0828DE80FF11D858D90E008958FEF3B
:1003F0009FEF0895FC01918D228D892F90E0805C04
:100400009F4F821B91098F73992708958CE391E088
:100410000E94FA0121E0892B09F420E0822F08953F
:1004200080E090E0892B29F00E94060281110C9453
:1004300000000895FC01A48DA80FB92FB11DA35A87
:10044000BF4F2C91848D90E001968F739927848FF4
:10045000A689B7892C93A089B1898C918370806417
:100460008C93938D848D981306C00288F389E02DB8
:1004700080818F7D80830895EF92FF920F931F9369
:10048000CF93DF93EC0181E0888F9B8D8C8D981347
:100490001AC0E889F989808185FF15C09FB7F89453
:1004A000EE89FF896083E889F9898081837080649F
:1004B00080839FBF81E090E0DF91CF911F910F91EA
:1004C000FF90EF900895F62E0B8D10E00F5F1F4FF9
:1004D0000F731127E02E8C8D8E110CC00FB607FC08
:1004E000FACFE889F989808185FFF5CFCE010E9496
:1004F0001A02F1CFEB8DEC0FFD2FF11DE35AFF4FE8
:10050000F0829FB7F8940B8FEA89FB898081806223
:10051000CFCFCF93DF93EC01888D8823B9F0AA89E0
:10052000BB89E889F9898C9185FD03C0808186FDAE
:100530000DC00FB607FCF7CF8C9185FFF2CF8081FD
:1005400085FFEDCFCE010E941A02E9CFDF91CF9156
:100550000895CF92DF92EF92FF92CF93DF93EC0159
:10056000603282E07807CCF5653B710514F064EBEE
:1005700070E0898128E830E0281B310987FD339538
:10058000220F331F220F331F6901330FEE08FF08BC
:100590008A8128E532E0281B310987FD3395220F37
:1005A000331F220F331F032E000C440B550B2C1945
:1005B0003D094E095F09DB0177FF02C0B0E0A0E012
:1005C0000E94B40A24EB30E040E050E00E948A0A26
:1005D000C20ED31EE41EF51EB601E881EC3070F5A4
:1005E000298188E890E0821B910927FD9395880F67
:1005F000991F880F991F681779077CF02A8188E571
:1006000092E0821B910927FD9395880F991F880F0F
:10061000991F681779070CF4CB010297880F991F6F
:100620004FB7F8942E2F30E0F901EE0FFF1FE20FC5
:10063000F31FE752FE4F928381834FBFDF91CF912B
:10064000FF90EF90DF90CF900895CF92DF92EF92DE
:10065000FF926B017C0120E030E040E252E40E9416
:10066000900B181684F120E030E040E252ECC70114
:10067000B6010E94A30987FF06C0C12CD12C90E2CD
:10068000E92E92ECF92E20E030E044EB52E4C70171
:10069000B6010E94EE0A0E945A0B82E092E00E948C
:1006A000A902A701960160E070E088E992E40E9447
:1006B000ED0A0E945A0B85E092E0FF90EF90DF90E8
:1006C000CF900C94A902C12CD12C80E2E82E82E4B8
:1006D000F82ED9CF892B79F41092800082E0809394
:1006E00081001092850010928400B19A80916F0071
:1006F000826080936F0008950F931F93CF93DF93D1
:10070000EC018B0188819981DC01ED91FC910280E3
:10071000F381E02D09958017910754F48881998120
:10072000DC01ED91FC910088F189E02D0995EACF7B
:10073000DF91CF911F910F910895CF93DF93EC013B
:1007400061E070E00E947C0388819981DC01ED9179
:10075000FC910480F581E02DDF91CF9109940F93F6
:100760001F93CF93DF9300D000D0CDB7DEB7FC014D
:10077000228533858681978104978217930720F11C
:10078000A281B3818D01020F131FCE010196AE012C
:100790004B5F5F4FD8016D918D01DC016D93CD01F1
:1007A000A417B507B9F72C5F3F4F338722876981BC
:1007B0007A818B819C810F900F900F900F90DF9129
:1007C000CF911F910F91089560E070E0CB01F3CFBE
:1007D000CF92DF92EF92FF920F931F93CF93DF930D
:1007E000EC010E9490010A811B812C813D816B01EB
:1007F0007C01C01AD10AE20AF30A970186014E81F0
:100800005F81052E000C660B770B81E040175107C6
:100810006207730708F080E0DF91CF911F910F917D
:10082000FF90EF90DF90CF900895CF93DF93EC018E
:100830000E9490016A837B838C839D83DF91CF919B
:1008400008958F929F92AF92BF92CF92DF92EF92D4
:10085000FF920E946B016B017C0192E0892E912C2A
:10086000A12CB12C0E946B016C197D098E099F0986
:10087000683E734081059105A8F328EEC20E23E07F
:10088000D21EE11CF11C8A9489288A288B2829F021
:10089000812C912C54018394E5CFFF90EF90DF9051
:1008A000CF90BF90AF909F908F90089581E0089572
:1008B0008CE391E00C9489028CE391E00C949C0110
:1008C0008CE391E00C943C028F929F92AF92BF9286
:1008D000EF92FF920F931F93CF93DF93EC015B0195
:1008E0007901E881F9810280F381E02D0995E8160C
:1008F000F90644F0E881F9810280F381E02DCE0110
:1009000009957C018501D0E0C0E0EC16FD0659F1A7
:100910000E949001609344017093450180934601C9
:10092000909347018CE391E00E94D80197FF27C084
:100930000E9490018090440190904501A090460152
:10094000B0904701681979098A099B098090400194
:1009500090904101A0904201B09043016815790543
:100960008A059B05F8F2CE01DF91CF911F910F917F
:10097000FF90EF90BF90AF909F908F900895F801F7
:1009800081938F012196C1CF8CE391E00E94D80121
:1009900008958CE391E00C94FA01ECE3F1E0A08976
:1009A000B18982E08C93A485B5851C92A685B78514
:1009B00083E38C93108EA489B58986E08C93A289F9
:1009C000B3898C9180618C93A289B3898C91886062
:1009D0008C93A289B3898C9180688C930288F38967
:1009E000E02D80818F7D808381E008951F920F929A
:1009F0000FB60F9211242F933F938F939F93AF9332
:100A0000BF938091340190913501A0913601B0914E
:100A100037013091330123E0230F2D3758F501962C
:100A2000A11DB11D209333018093340190933501B2
:100A3000A0933601B093370180913801909139012C
:100A4000A0913A01B0913B010196A11DB11D809387
:100A5000380190933901A0933A01B0933B01BF91C3
:100A6000AF919F918F913F912F910F900FBE0F905B
:100A70001F90189526E8230F0296A11DB11DD2CF15
:100A80001F920F920FB60F9211242F933F934F9303
:100A90005F936F937F938F939F93AF93BF93EF93E6
:100AA000FF938CE391E00E941A02FF91EF91BF91B6
:100AB000AF919F918F917F916F915F914F913F91F6
:100AC0002F910F900FBE0F901F9018951F920F92AD
:100AD0000FB60F9211242F938F939F93EF93FF9351
:100AE000E0914C01F0914D018081E0915201F09133
:100AF000530182FD1BC09081809155018F5F8F73E0
:100B000020915601821741F0E0915501F0E0E45C3C
:100B1000FE4F958F80935501FF91EF919F918F919B
:100B20002F910F900FBE0F901F9018958081F4CFDA
:100B30001F920F920FB60F9211242F933F934F9352
:100B40005F936F937F938F939F93AF93BF93CF9355
:100B5000DF93EF93FF9380913201C091FD01D0E0CC
:100B600087FF24C01092850010928400809132018A
:100B70008F5F8093320180913201082E000C990B17
:100B80008C179D0724F4809132018C30C4F1809140
:100B9000840090918500049680349C4908F47AC0C2
:100BA0008091840090918500049676C080913201F6
:100BB000082E000C990B8C179D07C4F6E0913201AA
:100BC0008E2FEE0F990BFC01EE0FFF1FE80FF91FA0
:100BD000E752FE4F808186FFC9CFE09132018E2F10
:100BE000EE0F990BFC01EE0FFF1FE80FF91FE75204
:100BF000FE4F808160E08F730E94A700B7CF2091E5
:100C0000840030918500E09132018E2FEE0F990B18
:100C1000FC01EE0FFF1FE80FF91FE752FE4F818125
:100C20009281820F931F9093890080938800E091B6
:100C300032018E2FEE0F990BFC01EE0FFF1FE80F14
:100C4000F91FE752FE4F808186FF11C0E09132010B
:100C50008E2FEE0F990BFC01EE0FFF1FE80FF91F0F
:100C6000E752FE4F808161E08F730E94A700FF91E1
:100C7000EF91DF91CF91BF91AF919F918F917F9134
:100C80006F915F914F913F912F910F900FBE0F90F9
:100C90001F90189580E49CE99093890080938800C8
:100CA0008FEF80933201E3CFCF93DF9310923F0118
:100CB00010923E0188EE93E0A0E0B0E08093400106
:100CC00090934101A0934201B09343018AE091E0E7
:100CD00090933D0180933C0185EC90E09093490115
:100CE0008093480184EC90E090934B0180934A01FB
:100CF00080EC90E090934D0180934C0181EC90E06A
:100D000090934F0180934E0182EC90E090935101BB
:100D10008093500186EC90E09093530180935201B0
:100D200010925501109256011092570110925801DD
:100D30008CE191E090930B0280930A020E94900153
:100D400060930C0270930D0280930E0290930F0239
:100D500088EE93E0909311028093100281E190E07D
:100D60000E94A70BEC011F821E82198618861B8623
:100D70001A861E86188A1F868AE092E099838883E5
:100D800080E092E00E94A70B9B838A8380E092E040
:100D90000E94A70B9D838C8380E092E09D878C87C7
:100DA0008AE092E00E94CD0488819981DC01ED9176
:100DB000FC910288F389E02D0995D0930902C09334
:100DC00008028091FD018C3098F591E0980F909386
:100DD000FD018093020290E0FC01EE0FFF1FE80F7F
:100DE000F91FE752FE4F88EB9BE09283818380914D
:100DF000FD018C3008F591E0980F9093FD018093F0
:100E0000050290E0FC01EE0FFF1FE80FF91FE7520B
:100E1000FE4F88EB9BE0928381831092FE0110923B
:100E2000FF011092000210920102DF91CF9108950C
:100E30008FEF80930202DBCF8FEF80930502EDCF1F
:100E4000789484B5826084BD84B5816084BD85B5A5
:100E5000826085BD85B5816085BD80916E008160B1
:100E600080936E0010928100809181008260809357
:100E70008100809181008160809381008091800059
:100E80008160809380008091B10084608093B10084
:100E90008091B00081608093B00080917A0084607E
:100EA00080937A0080917A00826080937A008091AA
:100EB0007A00816080937A0080917A0080688093C4
:100EC0007A001092C1008AE092E00E94CD048091E5
:100ED00002028C3008F042C083E00E9488008091BA
:100EE0000202282F30E0F901EE0FFF1FE20FF31F7F
:100EF000E752FE4F9081907C9360908310920302A2
:100F0000109204022CE0622F0E94950B90E0829FC9
:100F1000B001112430E020E0AB01420F531FFA0171
:100F2000EE0FFF1FE40FF51FE752FE4F408146FD15
:100F300007C02F5F3F4F2C30310571F70E946A03C5
:100F4000E09102028E2F90E0FC01EE0FFF1FE80FF0
:100F5000F91FE752FE4F80818064808380910502F3
:100F60008C3008F042C082E00E9488008091050227
:100F7000282F30E0F901EE0FFF1FE20FF31FE752B9
:100F8000FE4F9081907C92609083109206021092A6
:100F900007022CE0622F0E94950B90E0829FB00127
:100FA000112430E020E0AB01420F531FFA01EE0F95
:100FB000FF1FE40FF51FE752FE4F408146FD07C0BB
:100FC0002F5F3F4F2C30310571F70E946A03E0918B
:100FD00005028E2F90E0FC01EE0FFF1FE80FF91FB6
:100FE000E752FE4F80818064808386E00E94880003
:100FF00084E00E94880087E00E94880085E00E94CB
:1010000088008EE10E94880084E20E94880082E2CB
:101010000E94880080E20E94880061E08EE10E94C8
:10102000A70061E084E20E94A70061E082E20E94E2
:10103000A70061E080E20E94A70032E0C32ED12C1D
:10104000AA24A394B12C50E0852E50E0952EE09177
:101050000802F091090280819181DC01ED91FC91FF
:101060000684F785E02D0995882309F479C0C0919D
:101070000802D09109028E819F81009709F079C002
:1010800088819981DC01ED91FC910280F381E02D52
:101090000995181619060CF063C0CE010E949D0335
:1010A0008F3009F05DC0CE010E949D03853009F4A8
:1010B000B9C0893009F4ADC0813009F051C062E097
:1010C00070E0CE010E947C0388819981DC01ED9162
:1010D000FC910480F581E02D0995F82E8881998195
:1010E000DC01ED91FC910480F581E02D09950F2D37
:1010F000182F01151105A1F11F821E821B861A8669
:101100008C859D858017910758F178010134110570
:1011100018F020E4E22EF12CB701CE010E947C03EE
:10112000888199814E815F816A817B81DC01ED91AB
:10113000FC910680F781E02D97010995081B190B9A
:101140002E813F81820F931F9F838E83011511058E
:10115000E1F6CE010E949D038C3011F01F821E82A9
:10116000C0910802D09109028E819F81009709F4F5
:1011700044C02A853B858217930788F0EA81FB816A
:10118000C90101969B878A87E20FF31F8081823015
:1011900009F4C0C00CF04FC0813009F45AC0E0918E
:1011A0000802F091090217821682138612868AE0DD
:1011B00092E00E942104C0910802D0910902888126
:1011C0009981DC01ED91FC910084F185E02D6FE0C7
:1011D000099588819981DC01ED91FC910084F1856C
:1011E000E02D69E0099588819981DC01ED91FC9100
:1011F0000084F185E02D6CE009958114910409F4D7
:1012000026CF0E940602882309F421CF0E94000005
:101210001ECFCE010E949D038C3009F0A1CFB88A69
:10122000AF869ECFCE010E949D038C3009F098CFEF
:10123000D88ACF8695CF833009F468C0843009F00E
:10124000AECF0E944F0160E070E0CB010E94250309
:10125000A6CFCE010E94AF032B013C0120E030E07D
:1012600040E85FE30E94900B1816B4F120E030E0F4
:1012700040E85FEBC301B2010E94A30987FF06C0EB
:10128000412C512C90E8692E9FEB792E4092FE0163
:101290005092FF01609200027092010220E030E063
:1012A000A901C301B2010E94900B1816E4F420E0DA
:1012B00030E04FE753E4C301B2010E94CC090E9421
:1012C000610BC62FD0E0BE0186E00E94F300BE0194
:1012D00084E00E94F30063CF412C512C80E8682EFB
:1012E0008FE3782ED3CF20E030E04FE753ECC301FB
:1012F000B2010E94CC090E94610BC62FD0E0BE0152
:1013000087E00E94F300BE0185E0E3CFCE010E949A
:10131000AF039CCF0E944F0142CFCF93DF93C09188
:101320000802D0910902209759F08A819B81009789
:1013300011F00E94430CCE01DF91CF910C94430C2D
:10134000DF91CF9108950E94A80908F481E00895E3
:10135000990F0008550FAA0BE0E8FEEF16161706C6
:10136000E807F907C0F012161306E407F50798F02E
:10137000621B730B840B950B39F40A2661F0232B47
:10138000242B252B21F408950A2609F4A140A695C3
:101390008FEF811D811D08950E94DF090C94500A72
:1013A0000E94420A38F00E94490A20F0952311F069
:1013B0000C94390A0C943F0A11240C94840A0E945C
:1013C000610A70F3959FC1F3950F50E0551F629F1E
:1013D000F001729FBB27F00DB11D639FAA27F00D8E
:1013E000B11DAA1F649F6627B00DA11D661F829FB5
:1013F0002227B00DA11D621F739FB00DA11D621F9A
:10140000839FA00D611D221F749F3327A00D611DB6
:10141000231F849F600D211D822F762F6A2F112498
:101420009F5750409AF0F1F088234AF0EE0FFF1FCB
:10143000BB1F661F771F881F91505040A9F79E3F22
:10144000510580F00C94390A0C94840A5F3FE4F350
:10145000983ED4F3869577956795B795F795E79578
:101460009F5FC1F7FE2B880F911D9695879597F981
:10147000089597F99F6780E870E060E008959FEF16
:1014800080EC089500240A9416161706180609061B
:10149000089500240A9412161306140605060895EA
:1014A000092E0394000C11F4882352F0BB0F40F472
:1014B000BF2B11F460FF04C06F5F7F4F8F4F9F4FB2
:1014C000089557FD9058440F551F59F05F3F71F034
:1014D0004795880F97FB991F61F09F3F79F087959B
:1014E0000895121613061406551FF2CF4695F1DF24
:1014F00008C0161617061806991FF1CF86957105B4
:10150000610508940895E894BB2766277727CB01E7
:1015100097F90895052E97FB1EF400940E94A10AE6
:1015200057FD07D00E94BC0A07FC03D04EF40C9470
:10153000A10A50954095309521953F4F4F4F5F4FF1
:10154000089590958095709561957F4F8F4F9F4F2F
:1015500008950E94DE0AA59F900DB49F900DA49F50
:10156000800D911D11240895B7FF0C94A90A0E94C3
:10157000A90A821B930B0895A1E21A2EAA1BBB1B7A
:10158000FD010DC0AA1FBB1FEE1FFF1FA217B3074F
:10159000E407F50720F0A21BB30BE40BF50B661F65
:1015A000771F881F991F1A9469F760957095809529
:1015B00090959B01AC01BD01CF010895A29FB001A0
:1015C000B39FC001A39F700D811D1124911DB29F77
:1015D000700D811D1124911D08955058BB27AA2715
:1015E0000E94050B0C94500A0E94420A38F00E9497
:1015F000490A20F039F49F3F19F426F40C943F0A6D
:101600000EF4E095E7FB0C94390AE92F0E94610A79
:1016100058F3BA17620773078407950720F079F427
:10162000A6F50C94830A0EF4E0950B2EBA2FA02D8C
:101630000B01B90190010C01CA01A0011124FF277F
:10164000591B99F0593F50F4503E68F11A16F0407A
:10165000A22F232F342F4427585FF3CF4695379579
:101660002795A795F0405395C9F77EF41F16BA0B3E
:10167000620B730B840BBAF09150A1F0FF0FBB1FEC
:10168000661F771F881FC2F70EC0BA0F621F731F35
:10169000841F48F4879577956795B795F7959E3F92
:1016A00008F0B0CF9395880F08F09927EE0F979523
:1016B000879508950E94610B6894B1110C94840A77
:1016C00008950E94690A88F09F5798F0B92F9927CA
:1016D000B751B0F0E1F0660F771F881F991F1AF01D
:1016E000BA95C9F714C0B13091F00E94830AB1E0F5
:1016F00008950C94830A672F782F8827B85F39F0F4
:10170000B93FCCF3869577956795B395D9F73EF4B5
:1017100090958095709561957F4F8F4F9F4F08955D
:101720000E94A80908F48FEF0895991B79E004C07E
:10173000991F961708F0961B881F7A95C9F7809510
:101740000895EE0FFF1F0590F491E02D09940F937B
:101750001F93CF93DF938230910510F482E090E0E5
:10176000E0911402F091150230E020E0B0E0A0E03A
:10177000309799F42115310509F44AC0281B390B1B
:1017800024303105D8F58A819B816115710589F175
:10179000FB0193838283FE0111C04081518102814C
:1017A000138148175907E0F04817590799F4109723
:1017B00061F012960C93129713961C933296CF01F8
:1017C000DF91CF911F910F91089500931402109310
:1017D0001502F4CF2115310551F04217530738F0A7
:1017E000A901DB019A01BD01DF01F801C1CFEF01C1
:1017F000F9CF9093150280931402CDCFFE01E20F32
:10180000F31F819391932250310939832883D7CFD5
:101810002091120230911302232B41F420910201F6
:1018200030910301309313022093120220910001A2
:10183000309101012115310541F42DB73EB740919A
:10184000040150910501241B350BE0911202F09127
:101850001302E217F307A0F42E1B3F0B28173907DA
:1018600078F0AC014E5F5F4F2417350748F04E0FFC
:101870005F1F5093130240931202819391939FCF65
:10188000F0E0E0E09CCFCF93DF930097E9F0FC011C
:10189000329713821282A0911402B0911502ED01C9
:1018A00030E020E01097A1F420813181820F931F56
:1018B00020911202309113022817390709F061C0F4
:1018C000F0931302E0931202DF91CF910895EA01A1
:1018D000CE17DF07E8F54A815B819E01411551056E
:1018E000B1F7E901FB83EA8349915991C40FD51FF0
:1018F000EC17FD0761F4808191810296840F951F9A
:10190000E90199838883828193819B838A83F0E0B4
:10191000E0E012968D919C9113970097B9F52D9167
:101920003C911197CD010296820F931F20911202D4
:10193000309113022817390739F6309751F5109274
:10194000150210921402B0931302A0931202BCCF9E
:10195000D383C28340815181840F951FC817D90753
:1019600061F44E5F5F4F88819981480F591F518301
:1019700040838A819B81938382832115310509F0FD
:10198000B0CFF0931502E09314029ECFFD01DC016D
:10199000C0CF13821282D7CF10E0CDE5D0E004C0D3
:1019A000FE010E94A10B2196CE35D107C9F7F8940C
:0219B000FFCF67
:1019B200000016028000000000003C029C01C901E8
:1019C2008902FA01D801EC0100000000CD04C9042B
:1019D200C404640460045C0458045604210415041D
:0219E200E80318
:00000001FF
